:100000000C9434000C9451000C9451000C94510049
:100010000C9451000C9451000C9451000C9451001C
:100020000C9451000C9451000C9451000C9451000C
:100030000C9451000C9451000C9451000C945100FC
:100040000C9451000C9451000C9451000C945100EC
:100050000C9451000C9451000C9451000C945100DC
:100060000C9451000C94510011241FBECFEFD8E026
:10007000DEBFCDBF12E0A0E0B1E0E2EAFDE102C0E8
:1000800005900D92A63AB107D9F722E0A6EAB2E0B0
:1000900001C01D92A73AB207E1F70E9412020C9428
:1000A000CF0E0C9400002F923F924F925F926F926E
:1000B0007F928F929F92AF92BF92CF92DF92EF92F8
:1000C000FF920F931F93CF93DF93CDB7DEB72D979A
:1000D0000FB6F894DEBF0FBECDBF20E030E089013F
:1000E000061B170B6901C80AD90A292F322F33239F
:1000F0000AF08B0122230AF06C019A8389832AE09B
:1001000030E0B801C601390140E050E05A010E94D8
:100110007C0E60636D8781E00A301105CA04DB0440
:1001200008F0812D8170803009F02EC08AE090E0C7
:100130009E012D5F3F4F19013C01B801C6012AE025
:1001400030E0790140E050E02A010E947C0E590124
:100150004A01B501C4019701A2010E947C0E6063AF
:10016000C3010197D1013C01A80FB91F6C9381E035
:1001700004361105C404D50408F0812D8170803047
:100180008501640109F4D9CF81E029813A813323C3
:100190000AF0812D81708030F30139F03197DE0152
:1001A0001396AE0FBF1F8DE28C93EB30F10589F0F3
:1001B000CE010396DC01AE0FBF1F2C913091C00021
:1001C00030723030D9F32093C6003196EB30F10510
:1001D00089F72D960FB6F894DEBF0FBECDBFDF9125
:1001E000CF911F910F91FF90EF90DF90CF90BF9034
:1001F000AF909F908F907F906F905F904F903F90C7
:100200002F9008952F923F924F925F926F927F921C
:100210008F929F92AF92BF92CF92DF92EF92FF9216
:100220000F931F93CF93DF93CDB7DEB725970FB60C
:10023000F894DEBF0FBECDBF8C012DEC3CEC40E04E
:1002400050E0B801CA010E94A50E96958795969533
:100250008795969587952AE09202902D1124829F8A
:10026000812D1124890F982F88279001282B392B55
:10027000C801821B930B80638D83CE0101966C01B4
:100280000A30110528F4C6010496DC01019646C027
:1002900084E090E05C018DEC9CEC4C0180E090E00F
:1002A0002C018AE999E11C01B8013201C3019401D2
:1002B000A3010E94A50E7C01F694E794F694E794BE
:1002C000F694E794812D912DB7019101A3010E942D
:1002D000A50E2AE0D6019202902D1124829F812D35
:1002E0001124890F982F88279001282B392BC701BB
:1002F000821B930B8063F50131975F01AE0FBF1F27
:100300008C9304361105870108F0CECF9501253076
:10031000310599F0CD01821B930B0596FD012081DB
:100320003091C00030723030D9F32093C600FD0107
:100330003196DF01E817F90789F725960FB6F8948B
:10034000DEBF0FBECDBFDF91CF911F910F91FF9008
:10035000EF90DF90CF90BF90AF909F908F907F9065
:100360006F905F904F903F902F900895AF92BF9203
:10037000CF92DF92EF92FF920F931F93682F772710
:1003800020ED37E000E010E0C801A8010E94A50EB2
:1003900028E631E0A8010E947C0E220F331F220FB5
:1003A000331F8BEA90E3821B930B5C012553384F7C
:1003B00047EF5FE3B8017801F8012B9AC901019773
:1003C000F1F72B988701D801CA010197F1F781E075
:1003D000A330B10567010C051D0508F0812D817062
:1003E000AF5FBF4F0F4F1F4F803071F7C5010197AF
:1003F000F1F781E064307105D701EA07FB0708F0E7
:10040000812D81706F5F7F4FEF4FFF4F803009F07C
:10041000D4CF1F910F91FF90EF90DF90CF90BF90BE
:10042000AF9008950E9414022F923F924F925F92D4
:100430006F927F928F929F92AF92BF92CF92DF92F4
:10044000EF92FF920F931F93CF93DF93CDB7DEB759
:10045000CE54D0400FB6F894DEBF0FBECDBF8FB7DD
:10046000F8949091A602913019F48FBF0E94300A3F
:1004700091E09093A6028FBF5998519A8FEC90E02B
:100480009093C5008093C40082E08093C00088E10F
:100490008093C10086E08093C20020E030E0C90173
:1004A000DC01AA5ABE4F4C915091C000507250309E
:1004B000D9F34093C60001968531910589F72A98B2
:1004C000229A2B98239A2C98249A2A9A8BE99FE0B7
:1004D0000197F1F72A9887EF9FE3A901B901FC0181
:1004E0003197F1F7E1E0433051056207730708F0F7
:1004F000E12DE1704F5F5F4F6F4F7F4FE03079F735
:100500008BED98E20197F1F787EF9FE3A901B9011D
:10051000FC013197F1F7E1E04330510562077307C1
:1005200008F0E12DE1704F5F5F4F6F4F7F4FE0307C
:1005300079F78BE798E30197F1F78BE99FE07C016E
:1005400047EF5FE38BED98E26C01F901B9015B01C4
:100550002C9AC7010197F1F72C988901C901DA019A
:100560001197F1F761E0033011058207930708F056
:10057000612D61700F5F1F4F8F4F9F4F603079F774
:10058000C6010197F1F781E0E430F105B50162079A
:10059000730708F0812D8170EF5FFF4F6F4F7F4F22
:1005A000803009F0D4CF67EF7FE3A901C901FB01D7
:1005B0003197F1F7E1E0473151058207930708F0E1
:1005C000E12DE1704F5F5F4F8F4F9F4FE03079F724
:1005D0008BE79AE10197F1F787E790E17C0147EF1C
:1005E0005FE38FEF97E26C01C901F9015F012B9A7C
:1005F000F7013197F1F72B988901F901DA01119789
:10060000F1F761E003301105E207F30708F0612D0F
:1006100061700F5F1F4FEF4FFF4F603079F7F601AA
:100620003197F1F761E084309105F501E207F307B6
:1006300008F0612D61708F5F9F4FEF4FFF4F60306B
:1006400009F0D4CF84E690E09093010180930001FB
:1006500000E010E0C801DC01AD5DBE4F2C9130918F
:10066000C00030723030D9F32093C6000196873035
:10067000910589F71A8709878091C00080728030C0
:10068000D9F3DE011B9627EF3FE31901212DBC832F
:10069000AB8348018091C0008823E2F71091C60027
:1006A00089859A851A3009F02BC0F401DF01A5591C
:1006B000BE4F2C913091C00030723030D9F320936E
:1006C000C6003196EB31F10589F70E940201912DA8
:1006D000D40141E050E0892FAA57BE4F9C91209150
:1006E000C00020722030D9F39093C600817091E051
:1006F0008030DA0181F321E089859A85AB81BC8164
:100700008034910570F4312F33230AF487C1AB8113
:10071000BC81A80FB91F1C93AB81BC8101969A873D
:100720008987840121702030212D09F4B2CF21E086
:100730008115910509F4ADCFF801DF01A857BE4F2F
:100740002C913091C00030723030D9F32093C60024
:100750003196E131F10589F7AB81BC81FD01E80FEC
:10076000F91F2C913091C00030723030D9F32093B2
:10077000C6001196AE17BF07A1F7F801DF01A75613
:10078000BE4F2C913091C00030723030D9F320939D
:10079000C6003196E730F10589F70E940201C801D1
:1007A000DC01A056BE4F2C913091C0003072303029
:1007B000D9F32093C60001968330910589F7898586
:1007C0009A852B813C81F901E80FF91F811591056C
:1007D00009F44BC16801C9012F015601FC012191A7
:1007E000322F332322F0A22FBB27A40181C0622F16
:1007F0006F71062F112764013D2D36955C2D57959D
:10080000412F4795B02FB795A12DA79536955795B0
:100810004795B795A795FC0131813F73E32EFF24DF
:10082000203E08F457C03C2D3295307F1295312779
:10083000107F312702951027007F10274D2D4695F8
:100840005C2D5795F794E794C12CC794469557951E
:10085000F794E794C7944F2DDE2CFC0172817F73CF
:10086000A72FBB27AC29BD29203F08F438C05695D7
:100870004795B795A795212D279556954795B795F7
:10088000A7952795542F4B2F3A2F660F771F660F8A
:10089000771F6C717070642B752BFC0143814F7353
:1008A000A42FBB27A22BB32B21E0A115B10541E159
:1008B00050E06407750709F0212D2170049620305F
:1008C000840109F0FCC2F50134966F0124E030E0A8
:1008D000AB0116C0AE29BF29FC01329609C0212FF9
:1008E000702F612D422B532BA62BB72BFC01339677
:1008F0009F01281B390BC9018A0D9B1D6C01CF017B
:10090000FD01E950F0408A010040104061E0E5300F
:10091000F105F4010E071F078F0108F0612D6170CA
:100920006030F20129F08E179F0709F055CF54C2AD
:1009300061E0A032B1054007510709F0612D6170F7
:10094000603089F761E0A038B1054007510708F031
:10095000612D6170603009F05DC078010B2F142F9C
:10096000652F712DE1E0003211056E057F050CF455
:10097000E12DE170E030E9F4E1E0011511057401C9
:100980006E057F0509F0E12DE170E03009F032C01D
:10099000E1E00631110584016007710709F0E12DDE
:1009A000E170E030F20109F435C061E0A03876E191
:1009B0001AC0E1E00032110574016E057F0509F0EF
:1009C000E12DE170E030D9F4E1E00033110584015C
:1009D0006007710709F0E12DE170E030F201D1F01C
:1009E00061E0A11570E3B7074007510709F0612DD9
:1009F00061700CC0B070AA55BE4F6C9105C0B0704C
:100A0000AA55BE4F6C9166958401F2016170603009
:100A100009F089CF2A0D3B1DA6012BC0A4010FB6FA
:100A20002D965FAF4EAF2D970FBE0FB62F965FAFCF
:100A30004EAF2F970FBE312F3F7B0FB62E963EAF96
:100A40002E970FBE12951F7016951695106C0FB647
:100A50002D961EAF2D970FBEFC01FF97EF3B3FEF8A
:100A6000F30708F09DC18A015DCEC901A801980174
:100A700058018E179F0709F403C15A8349837F01E8
:100A8000A2914A2F44232AF02F01BB27B801680105
:100A900066C0F70132976081603C0CF022C0F7011C
:100AA00033977081703C0CF022C0F70134972F010E
:100AB00040814770E42FFF27412F4695502F5795CF
:100AC000F795E795C12CC79446955795F795E79507
:100AD000C7944F2FDE2E7F73072F11270C291D2956
:100AE0000BC02F016F71462F5527680118C02F01C9
:100AF0007F70A801072F11275695479517950795E1
:100B0000E12DE7955695479517950795E795D42ECE
:100B1000C12EF02F6F73462F55274E2B5F2BD69487
:100B2000C79457954795E12DE795D694C794579567
:100B30004795E7957C2D652FF42FAF73BB27AE2B20
:100B4000BF2B41E0A115B105E1E1F0E06E077F07A1
:100B500009F0412D41704030640109F091C0FD0160
:100B6000E950F0408B010040104041E0E530F105D4
:100B70000C051D05860108F0412D41704030F20141
:100B800029F08E179F0709F07ACF7AC041E0A03292
:100B9000B1056007710709F0412D4170403089F7B8
:100BA00041E0A038B1056007710708F0412D4170A0
:100BB000403009F05FC04B2F562F6801072F112DD1
:100BC000E1E0403251050C051D050CF4E12DE1700A
:100BD000E030F1F4E1E04115510564010C051D051B
:100BE00009F0E12DE170E03009F034C0E1E0463178
:100BF0005105A401040715078A0109F0E12DE170F0
:100C0000E030F20109F436C041E0A03856E11BC0E3
:100C1000E1E04032510564010C051D0509F0E12DAC
:100C2000E170E030E1F4E1E040335105A401040754
:100C300015078A0109F0E12DE170E030F201D1F0F1
:100C400041E0A11550E3B5076007710709F0412D98
:100C500041700CC0B070AA55BE4F4C9105C0B07029
:100C6000AA55BE4F4C9146958401F2014170403027
:100C700009F087CF29813A81281B390B2E0D3F1DA2
:100C80002A153B0509F4A8C08B819C818A0D9B1D08
:100C90006C012A193B09243079013105840109F0DE
:100CA00097C0D60184E090E0E2E0F1E04081342F8B
:100CB000315421E03A3131E008F0312D5C91652F5B
:100CC00061546A3108F0212D3295307F330F342B77
:100CD0002295207F220F252B231709F079C011962A
:100CE000319601978115910509F72C9A8BE193E0D4
:100CF0000197F1F72C98C8019801F1013197F1F7AC
:100D000041E0833091052007310708F0412D417003
:100D10008F5F9F4F2F4F3F4F403079F78BEA90E323
:100D20000197F1F72C9A8FE190E00197F1F72C9859
:100D3000C8019801F1013197F1F741E08330910545
:100D40002007310708F0412D41708F5F9F4F2F4FD3
:100D50003F4F403079F78BE091E20197F1F7C801FE
:100D6000DC01A45EBE4F2C913091C0003072303057
:100D7000D9F32093C60001968730910589F7C80101
:100D8000DC01A65DBE4F2C913091C0003072303036
:100D9000D9F32093C600019680319105E9F0F0CF98
:100DA000FA018A01A80FB91FAD01DE01A55BBF4F93
:100DB000AE0FBF1F3C916B817C81DA013C93DB015C
:100DC00001963196E230F10569F79A878987AACCB6
:100DD000C70182309105B8F484011A870987C801D8
:100DE000DC01AD55BE4F2C913091C00030723030D7
:100DF000D9F32093C60001968330910589F7212D00
:100E0000AB81BC8146CC9C01D601FD018181803C37
:100E10000CF41CC3FD0131966F01BC90F9013197B0
:100E2000E1303F01F10549F48B3209F4D5CF8D3221
:100E300081E090E03C0189F4CFCF8D32740109F458
:100E400043C08B32C90109F0C5C0129602978830A1
:100E500091056D013C0108F0C1C08401B801C801D1
:100E6000D6012D012C91E22FFF27E053F040A8017D
:100E70004040504021E0EA30F1056A014007510747
:100E800008F4212D2170203009F0A6CF2AE030E0AF
:100E90008401A8017F010E94A50EF701E60FF71F4C
:100EA0009601281F391FD2011196C30101978115A0
:100EB0003C019105BF01C90109F0D3CFE1C0A501F3
:100EC00098015801F201D5CD12962D01D901129742
:100ED000A830F7019701B10508F02FC0AD01D2018C
:100EE0008C91082F112700531040B70160407040CB
:100EF00081E00A3011056E057F0508F4812D8170AF
:100F000080306A0109F068CF3B01BF01C9012AE0C6
:100F100030E07401A7010E94A50ED601FB019C01DF
:100F2000E01BF10B26093709C20101962C0111972C
:100F3000A115B10509F4A4C0D1CF6D01F886EF82E7
:100F40008E01095F1F4FBF01C9012AE030E0A701F0
:100F50000E94790E4F81588531E04115510521E0FD
:100F600009F4212DD2014D912D01042F1127005399
:100F70001040F401AF01404050400A3011054E07C7
:100F80005F0708F4312D31703030D601FB0109F0D4
:100F900023CF2170203009F01FCFE01BF10BBC01E3
:100FA000640B750B9C018B01262737278427952717
:100FB0008223932381E099230AF0812D8170803070
:100FC00009F00ACF1197A115B1057401980109F034
:100FD000B4CF56C08930910508F43FCFA401FA017F
:100FE0009A01860178015E834D838E010B5F1F4F4E
:100FF000BF01C9012AE030E00E94790E4D815E8177
:1010000031E04115510521E009F4212DD7014D9121
:101010008D01A42FBB27A053B040F401AF01404085
:101020005040AA30B1054E075F0708F4312D3170EA
:101030003030FB0109F0D0CE2170203009F0CCCE49
:10104000EA0FFB1FBC01641F751F9C01DB012627F3
:10105000372784279527809590958223932381E0D5
:1010600099230AF0812D8170803009F0B5CEC3013B
:10107000019781153C019105A4019D0109F0B2CFB2
:1010800069018B2D88367F013CF4883461F08B2D0B
:10109000863509F0A1CE87C0863709F484C08B2D30
:1010A000883609F099CE81E01E161F06840196014C
:1010B000020713070CF4812D8170803009F0BDC048
:1010C000B80198015B01A801B8012A9AEFECF4E19C
:1010D0003197F1F72A98F801D801C1010197F1F78A
:1010E00011E0E330F105C401A807B90708F0112D9C
:1010F0001170EF5FFF4FAF4FBF4F103071F787EAAE
:1011000093E20197F1F7E1E0443051058401600773
:10111000710708F0E12DE1704F5F5F4F6F4F7F4F18
:10112000E03009F0D2CF2A9A8BE99FE00197F1F7DE
:101130002A98A801B801C1010197F1F7E1E0433015
:1011400051056007710708F0E12DE1704F5F5F4FB7
:101150006F4F7F4FE03079F78BED98E20197F1F711
:10116000F801B501DF01A65FBE4F4C918091C00030
:1011700080728030D9F34093C6003196E630F10595
:1011800089F76F5F7F4F2F4F3F4F41E0F7016E1799
:101190007F07C6012807390708F4412D4170403008
:1011A00009F0CFC08FCF81E01E161F068401960183
:1011B000020713070CF0812D8170803009F4DBC029
:1011C0008091000190910101B8016F5F7F4F0F4F37
:1011D0001F4F823291059CF05B01089790930101AB
:1011E00080930001843B910510F084EB90E00E9415
:1011F000B6018091000190910101F701B50121E054
:101200006E177F07A6010407150708F0212D21702E
:10121000203009F0DACF8401C801DC01AA5FBE4F9B
:101220002C913091C00030723030D9F32093C60039
:1012300001968430910589F7ECC081E0932F9923C2
:101240000AF0812D8170803009F47BC0C8018E1BAB
:101250009F0B5C019801C601280B390B3901A801CD
:10126000B8012A01F801A8012A9A83E69AE00197B9
:10127000F1F72A98C801D1011197F1F721E0033065
:101280001105D4018A079B0708F0212D21700F5FFB
:101290001F4F8F4F9F4F203071F783E19EE20197E0
:1012A000F1F781E0E430F10584014007510708F0CF
:1012B000812D8170EF5FFF4F4F4F5F4F803009F0FE
:1012C000D3CF2A9A8BE99FE00197F1F72A98F8018A
:1012D000C801A201D1011197F1F721E0E330F10536
:1012E0008007910708F0212D2170EF5FFF4F8F4F8E
:1012F0009F4F203079F78BED98E20197F1F7C80105
:10130000F701DC01A05FBE4F2C913091C00030721C
:101310003030D9F32093C60001968730910589F7C4
:101320004F5F5F4F6F4F7F4F81E09501421753072B
:1013300093016207730708F4812D8170803009F4EE
:1013400090CFC801DC01A65CBE4F2C913091C0004B
:1013500030723030D9F32093C60001968D3091055C
:1013600089F7BF01C6010E9453008091C0008072BE
:101370008030D9F367C081E0932F99230AF0812D43
:101380008170803009F445C0A8014E1B5F0BB80185
:10139000C601680B790B8091000190910101D80181
:1013A000AF5FBF4F0F4F1F4F86399105B4F42D012A
:1013B0003B015A0108969093010180930001181691
:1013C00019060CF0C4010E94B601809100019091B1
:1013D0000101F701A501B301D20121E0A417B5076E
:1013E0000607170708F0212D2170203009F0D8CF0B
:1013F0008401C801DC01A95EBE4F2C913091C00070
:1014000030723030D9F32093C600019685309105B3
:1014100089F7C801DC01A95BBE4F2C913091C00057
:1014200030723030D9F32093C60001968F30910589
:1014300089F7BF01C6010E9453008091C0008072ED
:101440008030D9F38AE08093C600C6CC41E050E0FA
:10145000CD01B9010E94340A0E94140B0E942C0A8B
:101460000E942E0A0E942C0A0E94360ACF92DF9216
:10147000EF92FF920F931F937C0181E06130780718
:1014800008F424C06A0184E090E0A1E0B1E08C019E
:101490001197F701EA0FFB1F40810197403CBCF315
:1014A00004501F4F0617170768F4D701A00FB11F8C
:1014B0008C91803CA60154F440E050E0C7019801B3
:1014C0000E94340A06171707A601B1F764177507BB
:1014D00030F06217730718F02417350710F40E94D4
:1014E0002C0A4115510551F04617570738F4D7011A
:1014F000A40FB51F8C91DA01803C0CF0D901A6171E
:10150000B70708F087C0CD01039721E0A817B907F6
:1015100008F0212D203011F080E090E01196A817FE
:10152000B90708F47EC0F701EA0FFB1FA81BB90B2F
:101530009701AC01280F391F2E173F0721F0119793
:101540008291803CCCF3A40FB51FA115B10509F021
:1015500051C0F7018081982F99230AF0C0CF803EB7
:1015600008F4BDCF803F08F4BACF91819F73692FF3
:10157000772740E050E0342F3295307F729537273F
:10158000707F372762957627607F7627272F762F03
:10159000612D92819F73A92FBB2756954795B795CB
:1015A000A795012D079556954795B795A79507954A
:1015B000542F4B2F1A2F422B532B880F991F880F14
:1015C000991F8C719070842B952B062B172B2381E0
:1015D0002F73422F5527402B512B61E170E021E002
:1015E000411551058607970709F4212D21702030F8
:1015F00089F075CFA617B70750F4F701EA0FFB1F64
:101600008081803C4CF0A617B70721F0A3CFA61726
:10161000B70711F40E94300AC701AD019B010E9477
:10162000340ABD010E94320AFFCF2F923F924F929F
:101630005F926F927F928F929F92AF92BF92CF9262
:10164000DF92EF92FF920F931F93390168015B01C4
:101650007A012C0121E030E081E0E114F104A206DE
:10166000B30608F0812D81708030A1F081E0C114B3
:10167000D1046206730608F0812D8170803009F470
:1016800029C0B601C3019701A5010E94A50E4C0116
:10169000112D4AC081E0C114D1046206730608F01E
:1016A000812D8170803009F437C040E050E0B601F0
:1016B000C301190195015A010E94A50E4B0111E0C9
:1016C000811491048205930501E008F4012DB6010F
:1016D000C30114C080E090E0B3011C0139019701FF
:1016E000A5010E94A50E4B0111E08114910486050D
:1016F000970501E008F4012DB601C1019701A5018C
:101700000E94A50E880E991E66177707880699060F
:1017100008F0112D102B08C0B601C3019701A501D7
:101720000E94A50E4C0111E0F20171836083938247
:101730008282117014831F910F91FF90EF90DF90C0
:10174000CF90BF90AF909F908F907F906F905F9061
:101750004F903F902F9008952F923F924F925F921B
:101760006F927F928F929F92AF92BF92CF92DF92B1
:10177000EF92FF920F931F93CF93DF93CDB7DEB716
:1017800022970FB6F894DEBF0FBECDBF39012801F6
:101790001A014C0181E0241435046605770508F030
:1017A000812D8170803021F040E050E09A0152C1DB
:1017B0006115710509F041C0C1019695879582298F
:1017C00093299C013695279536952795282B392BFB
:1017D000A901529542954F7045275F704527422BCE
:1017E000532BCA01892F9927842B952B809590958F
:1017F0009C013695279525753575821B930B9C01A9
:101800002373337396958795969587958373937312
:10181000820F931F9C01329522952F7023273F70D2
:101820002327280F391F2F703F70C901892F99274F
:10183000820F931F907040963FC0CB01969587957D
:10184000862B972B9C013695279536952795282B27
:10185000392BA901529542954F7045275F70452756
:10186000422B532BCA01892F9927842B952B8095C6
:1018700090959C013695279525753575821B930BA0
:101880009C012373337396958795969587958373FB
:101890009373820F931F9C01329522952F702327FB
:1018A0003F702327280F391F2F703F70C901892FE0
:1018B0009927820F931F90706114710409F041C041
:1018C00092013695279524293529A90156954795E2
:1018D00056954795422B532BFA01F295E295EF70FE
:1018E000EF27FF70EF27E42BF52B9F01232F3327E2
:1018F0002E2B3F2B20953095A90156954795457580
:101900005575241B350BA9014373537336952795E1
:101910003695279523733373240F351FA9015295EC
:1019200042954F7045275F704527420F531F4F70F8
:101930005F70FA01EF2FFF27E40FF51FF07070962C
:101940003FC093013695279526293729A901569539
:10195000479556954795422B532BFA01F295E29500
:10196000EF70EF27FF70EF27E42BF52B9F01232F5C
:1019700033272E2B3F2B20953095A901569547955F
:1019800045755575241B350BA90143735373369563
:1019900027953695279523733373240F351FA90197
:1019A000529542954F7045275F704527420F531F50
:1019B0004F705F70FA01EF2FFF27E40FF51FF070F3
:1019C000E81BF90B8E2F8F7180309201A30149F033
:1019D0009201A301220F331F441F551F8A958030A7
:1019E000C9F781E0221633066407750708F0812DD8
:1019F00081709070E81BF90BAF014F71507040304F
:101A000059F0842FD2017301AA0FBB1FEE1CFF1CDB
:101A10008A958030C9F702C0D20173012A1A3B0AA5
:101A20006E097F0920E030E081E090E0403031F045
:101A3000880F991F221F331F4A95F8CF41E02414C5
:101A400035046605770508F0412D4170403009F4F2
:101A500025C0AC0161015B01F401D582C4825183D0
:101A60004083B782A6823383228322960FB6F894EE
:101A7000DEBF0FBECDBFDF91CF911F910F91FF90C1
:101A8000EF90DF90CF90BF90AF909F908F907F901E
:101A90006F905F904F903F902F90089541E05F2DA1
:101AA00055230AF4412D4170403041F0FA83E98317
:101AB000FC018901AC0161015B0143C0F694E7942C
:101AC000B795A7953197FA83E9834E2F4F7100E0C0
:101AD00010E0E1E0F0E0403031F0EE0FFF1F001FBA
:101AE000111F4A95F8CF6101CA1ADB0A5B01AE08E3
:101AF000BF0851E04B2D442341E00AF4412D4170D1
:101B0000403009F46101403009F45B01C414D5048C
:101B1000A604B70408F0512D4030B80111F460E07C
:101B200070E05170752E4030AF0111F440E050E08C
:101B3000622B732B9B01482B592B872D803009F08A
:101B40008BCF2A013901E150F040004010408981DB
:101B50009A8181159105E1F0CC0CDD1CAA1CBB1CFF
:101B600096012A1B3B0BB5016E097F092F5F3F4F82
:101B70006F4F7F4F41E0572F55230AF0412D4170A1
:101B8000403009F45B01403009F469010197E1CF6D
:101B9000EC21FD21A2014E2B5F2B0A211B21930179
:101BA000202B312B89819A818F71803009F454CF99
:101BB000B694A794D794C7948A95F7CF8F929F92A3
:101BC000AF92BF92CF92DF92EF92FF920F931F934B
:101BD000CF93DF93CDB7DEB725970FB6F894DEBF6E
:101BE0000FBECDBF78016A015C01FB01A0E0B0E04F
:101BF000412D81E0E115F105AA06BB0609F0842F0D
:101C00008170803009F047C081E021153105CA0696
:101C1000DB0609F0812D81708030BD01CD0109F016
:101C20004EC0AD014E1B5F0BBD016A097B098B2DB8
:101C3000982F99230AF0AF0188230AF0B5018D018E
:101C4000021B130BFD01EC09FD098D2D88230AF001
:101C500089014D018D2D88230AF0F601CE010196F0
:101C60009F010E94150BCA24DB2421E0DD200AF02D
:101C7000212D21708B819C8169817A814D81203059
:101C8000D40161F421E0392F33230AF0212D217092
:101C90002030A1F414C0BD01CD0111C09D01261B4F
:101CA000370BFD01E80BF90B81E09F2F99230AF018
:101CB000812D81708030B901CF0109F441E0F70135
:101CC000B383A283242F33273183208325960FB635
:101CD000F894DEBF0FBECDBFDF91CF911F910F9162
:101CE000FF90EF90DF90CF90BF90AF909F908F903C
:101CF00008950E94DE0D08950F931F93CF93DF93F5
:101D0000CDB7DEB728970FB6F894DEBF0FBECDBFB4
:101D1000FA0189019C01AB01CE010196B9019F0135
:101D20000E94AC0B8F8198856D817E814B815C8197
:101D300029813A8128960FB6F894DEBF0FBECDBF39
:101D4000DF91CF911F910F910895DB018F939F93A6
:101D50000E94B50EBF91AF91A29F800D911DA39FD0
:101D6000900DB29F900D112408950E94C00EA59F62
:101D7000900DB49F900DA49F800D911D1124089586
:101D8000A29FB001B39FC001A39F700D811D1124BC
:101D9000911DB29F700D811D1124911D0895F8941D
:021DA000FFCF73
:101DA20064004649524555500D0A4C4546540D0AA9
:101DB20052494748540D0A444F574E0A4649524920
:101DC2004E470A484F4D494E470A464952452065FB
:101DD200786563757465640D0A0A594157206D6F01
:101DE200766564206279205049544348206D6F76AD
:101DF2006564206279205354415254206E657266A4
:101E02005F727573745F6E616E6F0A4C696E6520E6
:101E120072656365697665642120427566666572DE
:101E2200206C656E3A200D0A52415720696E70751A
:101E320074537472696E673A2020286C656E3A207A
:101E4200290D0A3E200A02020202020202020203D3
:101E5200030101010000000000000000000000007A
:101E6200000000000000010000000000000002026B
:101E7200000000000002000000000000000000005E
:101E82000000000000000000000000000000000050
:101E92000000000000000000000000000000000040
:101EA200000000000002000000000000000000002E
:101EB2000000000000000000000000000000000020
:101EC200000000000000000000000001000000000F
:101ED2000000000000000000000000000000000000
:101EE20000000000000001000000000000000000EF
:101EF20000000000000000000000000000000000E0
:101F020000000000000000000000000000000000CF
:101F120000000000000000000000000000000000BF
:101F220000000000000000000000000000000000AF
:101F3200000000000000000000000000000000009F
:061F420000000000000099
:00000001FF
